:020000040800F2
:10000000B0440020CD020008114A00088D400008CD
:1000100051480008E11E0008A1610008000000002E
:100020000000000000000000000000003502000891
:10003000631F00080000000079020008194F000843
:10004000E7020008E7020008E7020008E7020008EC
:10005000E7020008E7020008E7020008E7020008DC
:10006000E7020008E7020008E7020008F11E0008A6
:10007000FD1E0008E7020008091F0008151F000800
:10008000211F00082D1F0008911D0008E70200082D
:10009000E7020008E7020008E7020008E70200089C
:1000A000E7020008E7020008E7020008E70200088C
:1000B000F1510008FD510008E7020008E7020008BE
:1000C000E7020008E7020008E7020008E70200086C
:1000D000E7020008F1600008FD60000809610008FF
:1000E000E7020008E7020008E702000800F002F853
:1000F00000F090F80AA090E8000C82448344AAF132
:100100000107DA4501D100F085F8AFF2090EBAE82F
:100110000F0013F0010F18BFFB1A43F0010318473B
:100120004485000064850000103A24BF78C878C177
:10013000FAD8520724BF30C830C144BF04680C60ED
:10014000704700000023002400250026103A28BF35
:1001500078C1FBD8520728BF30C148BF0B60704739
:100160006E2900F08382702900F0CD83662908F0A3
:100170006C80652908F06980672908F0668061292C
:1001800008F0658003681B0A28BF41F080016929D7
:1001900000F03082642900F02D82752900F02A8257
:1001A0006F2900F05A83782900F09983E92900F03B
:1001B000F582E42900F0F282F52900F0EF82EF29C0
:1001C00000F05783F82900F098830368DB0928BF03
:1001D00041F08001632901F09F80732901F0A48020
:1001E000E32901F0AF80F32901F0B48000207047CB
:1001F0001FB501F005F904000020002107F0CAFC3A
:10020000401C60600020002107F0AEFCE0601FBDD4
:1002100010B510BD01F0C6F81146FFF7E9FF06F072
:10022000C1F801F0A3F903B4FFF7F2FF03BC05F036
:10023000EFFF0000224B19680868B0E8F00F80F368
:100240000988BFF36F8F4FF0000080F311884EF0E4
:100250000D0E70470000000006480068006880F33B
:10026000088862B661B6BFF34F8FBFF36F8F00DFB0
:1002700000BF00BF08ED00E0EFF30980BFF36F8F10
:100280000F4B1A6820E9F00F106008B54FF05000CE
:1002900080F31188BFF34F8FBFF36F8F06F05CFFC1
:1002A0004FF0000080F31188BDE808401968086825
:1002B000B0E8F00F80F30988BFF36F8F704700BF7D
:1002C00030000020EFF305807047000009488047A8
:1002D00009480047FEE7FEE7FEE7FEE7FEE7FEE728
:1002E000FEE7FEE7FEE7FEE704480549054A064B40
:1002F00070470000AB4F0008ED000008B03E002042
:10030000B0440020B0400020B04000207047000002
:100310007CB51D4616460C00009001D02044401EBE
:10032000074B7B442A4669460190304600F0B7F9F6
:1003300005461CB10020694600F0C4F928467CBD82
:10034000A903000010B5431C02E010F8011B71B1B5
:100350008107FAD14FF0013202C88C1A8C4314EA9B
:10036000C211F9D0C01A0A0603D0C01E10BDC01AAF
:1003700010BD0A0401D0801E10BD0902FCD0401E31
:1003800010BD032A40F2308010F0030C00F01580FD
:1003900011F8013BBCF1020F624498BF11F801CB88
:1003A00000F8013B38BF11F8013BA2F1040298BFED
:1003B00000F801CB38BF00F8013B11F0030300F057
:1003C0002580083AC0F0088051F8043B083A51F8FB
:1003D00004CBA0E80810F5E7121D5CBF51F8043B00
:1003E00040F8043BAFF30080D20724BF11F8013B73
:1003F00011F801CB48BF11F8012B24BF00F8013BD5
:1004000000F801CB48BF00F8012B704710B5203A27
:10041000C0F00B80B1E81850203AA0E81850B1E8BD
:100420001850A0E81850BFF4F5AF5FEA027C24BF73
:10043000B1E81850A0E8185044BF18C918C0BDE86A
:1004400010405FEA827C24BF51F8043B40F8043B33
:1004500008BF7047D20728BF31F8023B48BF11F8E8
:10046000012B28BF20F8023B48BF00F8012B704742
:1004700002F0FF0343EA032242EA024200F002B81C
:100480004FF000020429C0F0128010F0030C00F0BD
:100490001B80CCF1040CBCF1020F18BF00F8012B3B
:1004A000A8BF20F8022BA1EB0C0100F00DB85FEA09
:1004B000C17C24BF00F8012B00F8012B48BF00F8D5
:1004C000012B70474FF0000200B513469446964644
:1004D000203922BFA0E80C50A0E80C50B1F1200157
:1004E000BFF4F7AF090728BFA0E80C5048BF0CC005
:1004F0005DF804EB890028BF40F8042B08BF704763
:1005000048BF20F8022B11F0804F18BF00F8012BD4
:100510007047704770477047704710B500F0C2FAD7
:10052000006810BD10B5044600F0BCFA046010BDB0
:1005300070B5044685690068C10601D5302600E023
:100540002026C00707D070BDD4E90121304690476E
:10055000206A401C20626D1EF6D570BD70B5044641
:1005600085690078C00707D170BDD4E9012120203A
:100570009047206A401C20626D1EF6D570BD096848
:100580004A0501D540B27047C905FCD500B2704795
:1005900009684A0501D5C0B27047C905FCD580B2CB
:1005A000704770B50C460546012A05D028788006AC
:1005B00000D5EA69002302E0012305E05B1C9342B9
:1005C00002D2E05C0028F9D1A869E618C01AA86137
:1005D000286A184428622846FFF7AAFF04E0D5E9F4
:1005E000012114F8010B9047B442F8D32846FFF7D5
:1005F000B5FF70BD2DE9F04106460024106875294D
:10060000314616A510D0FFF7BAFF002802DA4042A3
:1006100013A507E031688A0701D512A502E0490752
:1006200004D511A5012401E0FFF7B2FF00210A2241
:1006300006F1240709E0B0FBF2FCB0FBF2F302FB89
:100640001C00303078541846491C0028F3D123464A
:100650002A463046BDE8F04100F06DBA00000000C7
:100660002D0000002B00000020000000116802682F
:10067000006A530501D508700AE0D30501D508804A
:1006800006E0130603D5C217C1E9000200E00860C6
:100690000120704701694A1C02610878704700B563
:1006A0008FB0CDE901310021059105497944CDE9AB
:1006B00003101146684600F031F90FB000BD00008C
:1006C000E5FFFFFF0A6802F8010B0A607047D1E9F5
:1006D00000239A4202D2531C0B6010707047000036
:1006E0002DE9FF5F15468A460446DFF8AC80F844E2
:1006F0000027D8E900103E46CDE9001010E03AF896
:1007000016106A4602A800F029FE411C07D0217885
:10071000890603D5E269391891420DD80744761C41
:100720002078800602D5E069B84205DDAE42E6DBFE
:100730003AF816000028E2D1A069C01BA06120464B
:10074000FFF7F6FED8E90010CDE90010002017E011
:100750003AF818106A4602A800F000FEB0F1FF3F18
:1007600081460BD000250DF1080B05E0D4E90121ED
:100770001BF8050090476D1C4D45F7D308F10100AB
:10078000B0428046E4DB206A384420622046FFF70E
:10079000E5FEBDE8FF9F0000DE7D00002DE9F04191
:1007A0008046D21D22F007020025D2E90002F52979
:1007B00015A614D0011E72F1000106DA0023D0EB59
:1007C000030063EB020211A608E0D8F800108B07C3
:1007D00001D50FA602E0490701D50EA60125114655
:1007E000002408F1240704E000F060F930323A55A3
:1007F000641C50EA0102F7D12B463246214640469E
:10080000BDE8F04100F097B9000000002D000000A5
:100810002B0000002000000030B4002100F124046F
:1008200008E002F00705D208303542EA4372DB08DF
:100830006554491C52EA0305F3D10468002310A251
:10084000250707D5A40600D421B1C46901230DA250
:10085000641EC46130BC00F06EB910B50446214678
:100860001068FFF795FE02462046BDE810400023C1
:10087000D2E7D21D22F00701D1E90023CCE7000026
:100880000000000030000000F0B40D4601880905AA
:1008900002D5214C7C4402E01F4C7C440E340021E4
:1008A00000F1240608E002F00F071209E75D42EAB2
:1008B00003721B097754491C52EA0307F3D10278EB
:1008C0000023120704D5702D06D009B1022311347C
:1008D0002246F0BC00F02FB901231034F8E770B5C0
:1008E00004460D4621461068FFF752FE024629468F
:1008F0002046BDE870400023C6E7D21D22F0070362
:10090000D3E90023C0E70368126843F020030360C3
:100910000823C3610023B7E7407C00002DE9F05FA6
:10092000894604464FF0000ADFF874B1FB44C0F872
:1009300020A02046E1688847002874D0252806D0EA
:10094000D4E901219047206A401C2062F1E700268B
:100950005F462046E16888472028054607DB312DA1
:1009600005D2781910F8200C08B10643F1E7B0075A
:1009700001D526F00406C4F81CA00027C4F818A06E
:100980002A2D09D0284605F03CFC38B304EB870833
:10099000303DC8F8185019E059F8041B204604EB04
:1009A00087029161E1688847012F054618D1E06907
:1009B000002820DA26F020061DE0D8F8180000EB09
:1009C000800005EB40003038C8F818002046E16888
:1009D0008847054605F015FC0028EED1012F0AD006
:1009E0002E2D08D12046E16888477F1C0546022F3E
:1009F00046F02006C4DBA069002803DA404246F036
:100A00000106A061F00701D026F010066C2D0BD076
:100A1000682D09D04C2D39D06A2D35D0742D35D0A4
:100A20007A2D33D016E038E0E1682F46204688471B
:100A3000B842054609D16C2F26D04FF48060E1689A
:100A4000064320468847054604E06C2F1AD04FF431
:100A5000807006430DB3A5F14100192802D8203556
:100A600046F400664A462946204626604E46FFF771
:100A700077FB80B101280BD0F61D26F0070000F1AE
:100A8000080956E74020E4E78020D8E70020D6E7B1
:100A900006F104094DE7284652E7206ABDE8F09FB9
:100AA000D07B000000487047503E002030B5B0F1C8
:100AB0000A024FEA900E71F100034EEA817EB0EB1C
:100AC0000E0061EB91014FEA101E4EEA017E10EB21
:100AD0000E0041EB11114FEA102E4EEA016E10EBA1
:100AE0000E0041EB11214FEA104E4EEA014E10EB81
:100AF0000E0041EB1141401841F100014FEAD000D6
:100B000040EA41704FEAD10110EB80054FEA8104C1
:100B100044EA907444EB01046D1944EB0404521B45
:100B2000A3414FF0000348BF0A3200D530BD401C3E
:100B300041F1000130BD2DE9F0470D46994692463E
:100B4000044600F124080168880604D5E06921F014
:100B50001001216000E00120A84201DD471B00E0F8
:100B60000027A1697A1902EB0900081AA061207810
:100B7000C00602D42046FFF7DBFC002608E0D4E9DB
:100B800001211AF806009047206A401C761C20625A
:100B90004E45F4DB2078C0060AD52046FFF7C8FC96
:100BA00006E0D4E9012130209047206A401C2062F1
:100BB000381EA7F10107F4DC07E0D4E9012118F899
:100BC00005009047206A401C2062281EA5F10105FF
:100BD000F3DC2046FFF7C2FC2078000602D5022095
:100BE000BDE8F0870120FBE770472DE9FF4F0C4679
:100BF0001E464FF0FF378BB0D2E90001DDF8608070
:100C00000A908A46C1F30A5505B93D4600210846B7
:100C10004FF00000BAF1000F00F4400005DA00EBDD
:100C200080004FF4400101EA50004FEA9059B9F1B9
:100C3000010F00DDB9460A9850EA4A000ED044F68A
:100C40001050A5F2FF3545432F14B8F1000F1ED008
:100C50007542291E1EDDC9F100021CE0B8F1010F2A
:100C60004FF0000001D0302103E0F24305E02154B1
:100C7000401CB042FBDB30460022002121540B997E
:100C8000C1F80880C1E900200FB0BDE8F08FBD1B9E
:100C90006D1CDEE74A4600DA694206A800F0F4FB64
:100CA00006AB93E8070003AB83E8070050460A99B8
:100CB00000F0A6FC8DE80700A0F500501F3800905A
:100CC0000398002D0ADD42F21F014A460844002322
:100CD00003A90390684600F00FFF09E0A0F500505B
:100CE0004A461F38002303A90390684600F019FF05
:100CF0008DE807000004000C03D04FF0FF304108DE
:100D000000E01046B8F1000F03D000220092154613
:100D10001EE0751E05D4FFF7C9FE303262556D1E08
:100D2000F9D5B3460122084302D000227F1C04E01B
:100D30002078302801D100227F1E002A099784D014
:100D40001DE0112D07DAFFF7B1FE303262556D1C40
:100D500050EA0102F5D1084302D00098C8B10EE074
:100D60000021681E05E0235C625C63542254401E2F
:100D7000491C8142F7DBAB46A81B401E09900020AE
:100D800004F80B000B98099AC0F80880C0E9002B02
:100D90007AE711264FF0000857E72DE9F04F884613
:100DA0000446D21D22F0070191B0D1E90001CDE93E
:100DB0000A0105F0F6F902460B98C00F01D02D206C
:100DC00007E02068810701D52B2002E0202101EAFD
:100DD000C000032A099001D0072A05DB03464146DB
:100DE000204600F011FB0BE12078800601D5E06978
:100DF00000E00620B8F1650F814606D0B8F1660F15
:100E000018D0B8F1670F70D131E00020B9F1110F9F
:100E1000009001DB112301E009F101030AAA01A9F5
:100E20000CA8FFF7E2FEDDE90C70002609F10105D0
:100E3000834647E001204B4600904FF000470AAA46
:100E400001A90CA8FFF7D1FEDDE90DB00C995D46B4
:100E5000002610B909F101000D18B9EB050003D403
:100E6000C0F1FF3609F10105A5EB09002BE0B9F14E
:100E7000010F01DA4FF001090020B9F1110F0090C4
:100E8000484601DD112300E003460AAA01A90CA887
:100E9000FFF7ABFEDDE90C704D4600268346207857
:100EA00000070AD4AB4500DA5D4601A8012D04DD38
:100EB000411911F8011C302907D04F4502DA17F10A
:100EC000040F04DA012082460FE06D1EEEE7002FCA
:100ED00002DCED1B3E4403E0781CA84200DD7D1CD3
:100EE000B81B00F1010A4FF000472078000703D437
:100EF000AA4501DB4FF0FF3A0021B7F1004F0DF199
:100F000043088DF8431024D002202B23002F01DA50
:100F10007F422D230A21021EA0F1010000DC5FB1F7
:100F200097FBF1FC97FBF1F201FB1C7C17460CF1DF
:100F3000300C08F801CDEEE7A8F10100037021881C
:100F4000090501D5452100E06521A0F1010800F85F
:100F5000011C09980FA9A1EB0807FF1D00B1012092
:100F6000411901EBEA70A1693844081A401EA061DA
:100F70002078C00602D42046FFF7DAFA099828B193
:100F8000D4E901219047206A401C20622078C006E5
:100F900022D52046FFF7CCFA1EE0002E04DBB34535
:100FA00002DD01A8805D00E03020D4E901219047F6
:100FB000206A401C2062761CAAF101005FEA000A48
:100FC0000AD100F01DFAC0680168405CD4E9012133
:100FD0009047206A401C2062281EA5F10105DCDC38
:100FE00007E0D4E9012118F8010B9047206A401C62
:100FF0002062381EA7F10107F3DC2046FFF7AEFAA6
:10100000032011B041E600002DE9F04F04460D46E3
:10101000D21D22F0070089B0D0E900974846394632
:1010200005F0BFF80246F80F01D02D2307E0206835
:10103000810701D52B2302E0202101EAC0038DF8AE
:1010400020300BB1012000E00020032A824601D0AD
:10105000072A04DB2946204600F0D6F93FE1207834
:10106000800601D40D2500E0E569C7F30A560D2D71
:1010700049DA00214FEA175B08464FF00000002FC5
:1010800000F4400007DA00EB80004FF4400100EB71
:10109000D07001EA60008115012901DD4FF0FF31B8
:1010A00000224FEA850CBCF1180F06D31346ACF1B1
:1010B00018004FF08052C24003E04FF4801323FA2F
:1010C0000CF30CF10C0CBCF1200F04D3ACF1200C90
:1010D00009FA0CF001E007FA0CF000294FF0004883
:1010E00001DD18B90FE00ED140450CD319EB020910
:1010F0005F4121B9404502D19F4329EA0209BBEB78
:10110000175F00D0761C2088000502D57B48784404
:1011100002E07A487844193808AA302302F80A30E5
:10112000037C0AF10101002E0AF1020A53546A46B7
:1011300002DC4FF0300101E04FF031014FF00108C7
:101140008DF8001002D0A6F2FF3603E059EA4701FD
:1011500000D06B4E002D02DC2178090704D54FF03A
:1011600002082E218DF80110C44600210BE0C7F3C0
:1011700003433F01C35C491C6D1E02F8083005297A
:1011800008F1010801DA002DF1DC00210CE000EB90
:101190001973491C1B786D1E082902F808304FEAA4
:1011A000091908F1010801DA002DF0DC21688B062D
:1011B00002D516E0A8F10108E04505DD02EB0803C1
:1011C00013F8013C302BF5D0B8F1000F09DD02EB2C
:1011D000080313F8013C2E2B03D1090701D4A8F111
:1011E0000108002D05DD3E2102F808106D1E08F1F2
:1011F0000108407C002E02F8080008F1010804DA1A
:101200002D20764202F8080002E02B2002F80800A8
:101210000A214FF47A70864208F101080BDB96FB35
:10122000F0F3303302F8083096FBF0F308F10108D0
:1012300000FB136601E0642E0CDB642096FBF0F3E8
:10124000303302F8083096FBF0F308F1010800FB98
:10125000136601E00A2E06DB96FBF1F0303002F84F
:10126000080008F1010896FBF1F001FB1060303036
:1012700002F80800A16908F1010808EB050202EB79
:101280000A00081AA0612078C00602D42046FFF7A1
:101290004FF9216A08AE01EB0A00206204E0D4E9AC
:1012A000012116F8010B9047BAF1010AF7D2207814
:1012B000C00602D52046FFF73BF96E4609E016F856
:1012C000010B3E280FD0D4E901219047206A401C31
:1012D0002062B8F10108F2D22046FFF73FF909B0C9
:1012E0000320BDE8F08F206A2844206203E0D4E99F
:1012F0000121302090476D1EEBD3F8E712740000F7
:1013000002FCFFFF10B5436913B1AFF3008001E0A9
:10131000FFF747F9012010BD127800F124010A708F
:1013200000224A700122EDE711684FF0FF32E9E731
:1013300010B5436913B1AFF3008001E0FFF7D0F9B6
:10134000012010BD128800F1240182840022C28491
:101350000122EDE711684FF0FF32E9E770B516465C
:101360000C46054600F044F8036893F80101012893
:1013700006D0FF2C0FD8185D68B101202C7070BD0D
:10138000D3F807013246214603F2071303442846E7
:10139000BDE8704018474FF0FF3070BD00487047FF
:1013A000503E00207546FFF7F9FFAE46050069463E
:1013B000534620F00700854618B020B5FEF794FF8D
:1013C000BDE820404FF000064FF000074FF0000846
:1013D0004FF0000B21F00701AC46ACE8C009ACE8C7
:1013E000C009ACE8C009ACE8C0098D4670470000F0
:1013F00010B500F005F8001D10BD00BF9967000092
:1014000000487047703E00202DE9F0411F46044619
:1014100003260168072A01F4006004DB08B116A561
:1014200005E016A503E008B115A500E015A521F01B
:1014300010002060A069C01EA0610FB1401EA06115
:101440002046FFF775F84FB1D4E90121384690479F
:10145000206A401C2062C01C206206E0206AFAE775
:10146000D4E9012115F8010B9047761EF8D22046E9
:10147000FFF774F8BDE8F0814E414E006E616E00DA
:10148000494E4600696E66002DE9F04781461646D2
:101490008AB0354878440DC88DE80D00324878444C
:1014A000801C03AC0DC884E80D0041F69B30084455
:1014B000372190FBF1F290FBF1F5A5F1800501FBDE
:1014C00012041B3C02D56442012000E00020DFF83A
:1014D00098A080460027FA44AAF1BE0A0EE0E00771
:1014E0000AD03246684607EB470101230AEB810127
:1014F00000F017FB8DE8070064107F1C002CEED174
:10150000194F7F44AE3F19E0E80715D007EB0410F0
:101510000DF1180A90E80E008AE80E00C068F0424B
:1015200001D1981908903246012306A903A800F0BA
:10153000F8FA03AB83E807006D10641C002DE3D1BB
:101540004FF0010332466946B8F1000F03A802D0FC
:1015500000F0D2FA01E000F0E4FAC9E90001C9F8AC
:1015600008200AB0BDE8F0871C71000010B50446E1
:10157000AFF300802046BDE81040FEF754BE0000E7
:101580004FF0013C50F8042B51F8043B9A4221D112
:10159000A2EB0C03934313EACC1317D150F8042B9E
:1015A00051F8043B9A4215D1A2EB0C03934313EA82
:1015B000CC130BD150F8042B51F8043B9A4209D1BB
:1015C000A2EB0C03934313EACC13DBD04FF00000E3
:1015D000704700BFD01A01BAB1FA81F101F01801C9
:1015E00022FA01F0CB40C1F12001DBB2C0B2C01A37
:1015F0002CFA01F3D11A914311EAC311E6D17047D5
:101600005FEA400C08BF91F0000F4FEA8C234FEACD
:10161000C12243EA51514FEA1C5018BF00F5F04077
:101620004FEA300018BF41F000415FEA6C5C00F007
:101630002980BCF1FF3F08BF40F080407047130C89
:1016400006BF12044FF0100C4FF0000C130E04BF35
:1016500012020CF1080C130F04BF12010CF1040C60
:10166000930F04BF92000CF1020CD30F04BF520081
:101670000CF1010C11464FF00002A0F11F00A0EB8D
:101680000C00704711F0004F08BF704731F0004167
:101690003FF4D5AF0B0C06BF09044FF0100C4FF010
:1016A000000C0B0E04BF09020CF1080C0B0F04BF59
:1016B00009010CF1040C8B0F04BF89000CF1020C22
:1016C000CB0F04BF49000CF1010CCCF12003A0EBBF
:1016D0000C0022FA03F302FA0CF241EA030100F1D2
:1016E0000100704720F07F4C80EA030023F07F4721
:1016F000ACEB070303F57C5300F0004003F1FF035C
:101700002DE980494FEA154B09B44FEA144325EA05
:101710000B4E24EA03480FF2042606EB1327490870
:101720003E785FEA320203FB0667C7F5000707FB56
:1017300006F64FEA54374FEAD64606F1020607FB93
:10174000066CCCF1005C4FEA1C472CEA074C07FB07
:1017500006F40CFB06F504EB15464FEA961634BF6B
:1017600000204FF000404FEAD13706FB07FC4FEA5C
:101770001C4C0CFB0BF7D21B03FB0CF761EB0701B6
:101780000CFB0EF7B0EB074072EB17420CFB08F7AF
:1017900034BFA2EB0742B2EB074261EB17414FEABD
:1017A0000C444FEA910706FB07FC4FEA1C4C0CFB6C
:1017B0000BF7B0EBC74072EB573203FB0CF734BFAB
:1017C000A2EBC742B2EBC74261EB57310CFB0EF7FD
:1017D000B0EBC70072EB57720CFB08F734BFA2EBFB
:1017E000C702B2EBC70261EB5771039F4FEA8161F9
:1017F00041EA921104EBCC044FEAD1374FEA8262FE
:1018000006FB07FC42EA90124FEA80604FEA1C4C4C
:101810000CFB0BF7D21B03FB0CF761EB07010CFB76
:101820000EF7B0EB074072EB17420CFB08F734BF22
:10183000A2EB0742B2EB074261EB17414FEA8C552E
:101840004FEA910704EB9C2406FB07FC4FEA1C4C73
:101850000CFB0BF7B0EBC74072EB573203FB0CF7F6
:1018600034BFA2EBC742B2EBC74261EB57310CFB6E
:101870000EF7B0EBC70072EB57720CFB08F734BFE2
:10188000A2EBC702B2EBC70261EB577115EB4C2517
:101890004FEA816141EA92114FEA82624FEAD13701
:1018A00042EA901206FB07FC44F100044FEA806014
:1018B0004FEA1C4C0CFB0BF7D21B03FB0CF761EB44
:1018C00007010CFB0EF7B0EB074072EB17420CFB65
:1018D00008F734BFA2EB0742B2EB074261EB1741B6
:1018E00015EB1C154FEA813141EA92414FEA8232F1
:1018F00042EA90424FEA80304FEA0C7644F100040D
:1019000048EA03434EEA0B484FF0000EB2EB080CD6
:1019100071EB030724BF624639464EEB0E0E4FF0C3
:10192000000B0018524149414BEB0B0BB2EB080C7A
:1019300071EB03077BF1000B24BF624639464EEB87
:101940000E0E4FF0000B0018524149414BEB0B0BB0
:10195000B2EB080C71EB03077BF1000B24BF62466E
:1019600039464EEB0E0E51EA020718BF46F001064B
:1019700016EB0E7655F1000254F1000103D5BDE8D7
:101980008901BDE80088BDE88901BDE80048B619B5
:10199000524141EB0101A3F10103704780807F7E3A
:1019A0007D7C7B7A797877767675747372717170D5
:1019B0006F6E6E6D6C6C6B6A6A6968686766666587
:1019C0006464636362616160605F5F5E5E5D5D5C15
:1019D0005C5B5B5A5A595958585757565655555586
:1019E0005454535352525251515050504F4F4F4EE6
:1019F0004E4D4D4D4C4C4C4B4B4B4A4A4A49494934
:101A00004848484747474746464645454544444475
:101A1000444343434342424242414141002B9C469E
:101A200030D477002BD01CB54FEA370703B44FF002
:101A300010004FF01001BAF1000F06D0BCF1000FFA
:101A4000DCBF40F0080040F008014FF000000FBC80
:101A5000BDE810400BF1010BBBF1010F08BF5FEABD
:101A6000170722BF12F1010211F101014FF00041ED
:101A700043F1000300F0004043EA00007047F9D34F
:101A80005708D0E746EA064613F1400F4FEA1646DC
:101A90001FDD13F1200FDFBF16430A46002120335C
:101AA0005B42BED0C3F1200746EA064602FA07F7BA
:101AB0004FEA164646EA0706C3F1200722FA03F268
:101AC00001FA07F721FA03F14FF0000342EA070297
:101AD000A7E746EA020646EA06464FEA164646EAFF
:101AE0000106BCBF46EA0646360C4FF000034FF035
:101AF00000024FF0000194E72DE9804C9A4693468E
:101B000070B491E8380007C831EA400C48BF34EAA5
:101B1000430C03D5FFF7E6FDFFF780FFF0BCBDE8FF
:101B2000008C2DE9804C9A46934670B491E83800B9
:101B300007C810F0804F08BF13F0804F03D100F0AA
:101B400005F8FFF76BFFF0BCBDE8008C20F07F4785
:101B500080EA030023F07F4C07EB0C03A3F57C53D2
:101B600000F00040A3F1FE0392F0000F00F0B380FC
:101B700095F0000F00F077802DE901494FEA114000
:101B80004FEA144621EA004800FB06FC24EA064717
:101B900008FB06F607FB08F800FB07F718EB0648FA
:101BA0004CEB164C4FEA124B18EB07484FEA154620
:101BB0004CEB174022EA0B4E0BFB06FC25EA0647CE
:101BC0000EFB06F607FB0EFE0BFB07F71EEB064EA1
:101BD0004CEB164C4FF000061EEB074E4CEB174B30
:101BE00018EB0B0840F1000018EB0E0B58EB000847
:101BF00040F100008F1A4FF000013CBFC943661B43
:101C000014BFB5EB040C00213CBFC943F61B4FEADF
:101C100017444EEA8E0E27EA04454FEA1C4704FBA0
:101C200007622CEA074C05FB07F70CFB05F604FBE3
:101C30000CFC16EB074642EB174216EB0C4642EB48
:101C40001C421BEB060658EB0202414146EA9E0687
:101C500001D5BDE80189B619524141EB0101A3F15B
:101C60000103BDE801894FEA14454FEA114724EA10
:101C7000054621EA074C05FB07F406FB07F70CFBBA
:101C800006F105FB0CFC11EB074144EB17444FEA4E
:101C9000124711EB0C4144EB1C4422EA074C05FBB4
:101CA00007F206FB07F70CFB06F605FB0CFC16EB30
:101CB000074642EB174216EB0C4642EB1C456A18EE
:101CC00054F1000148BF7047B619524141EB010180
:101CD000A3F10103704795F0000F37D04FEA11428E
:101CE0004FEA144721EA024624EA074C02FB07F1B7
:101CF00006FB07F70CFB06F402FB0CFC14EB074495
:101D000041EB17414FEA154714EB0C4441EB1C41E2
:101D100025EA074C02FB07F506FB07F70CFB06F666
:101D200002FB0CFC16EB074645EB174516EB0C4681
:101D300045EB1C42121951F1000148BF7047B6191A
:101D4000524141EB0101A3F1010370474FEA1445F1
:101D50004FEA114724EA054621EA074C05FB07F143
:101D600006FB07F70CFB06F24FF0000605FB0CFC28
:101D700012EB074241EB174112EB0C4251EB1C41B5
:101D800048BF7047921841EB0101A3F1010370476E
:101D9000014800F0D8B900001C01002070B50446CD
:101DA00000688168C943C90717D1816821F0010122
:101DB000816000F023FE05460AE000BF00F01EFE31
:101DC000401B022804D920688068C043C00706D0A1
:101DD00020688068C043C007F0D0002070BDA06AB2
:101DE00040F01000A062E06A40F00100E0620120D3
:101DF00070BD10B50146406A826A12F0500F05D0DE
:101E0000006A026BBDE8104008461047816A41F441
:101E10000071816201688968C1F3424107290CD1D0
:101E2000017B51B9816A21F480718162816AC904A0
:101E300003D4816A41F00101816200F081F910BD93
:101E400010B5406A816A41F040018162C16A41F087
:101E50000401C16200F076F910BD10B5406A00F0CF
:101E600070F910BDF8B50026044600960068816838
:101E7000C943C9072DD0816841F00101816016482E
:101E800016490068B0FBF1F000E0401E0090002809
:101E9000FBD100F0B3FD054616E000BF00F0AEFD3B
:101EA000401B022810D920688068C043C0070BD0AF
:101EB000A06A40F01000A062E06A40F00100E06219
:101EC00084F824600120F8BD20688068C043C00702
:101ED000E4D10020F8BD00002C00002040420F009B
:101EE000FEE703F07FFE322004F082FAF9E70000FB
:101EF000014800F07DBB00004C010020014800F0CB
:101F000077BB000050040020014800F071BB0000C6
:101F100084030020014800F06BBB00004003002058
:101F2000014800F065BB00000C040020014800F0EF
:101F30005FBB0000C803002030B590F8405001247A
:101F4000AC40C56B6C60046863604368102B036829
:101F500003D099600068C26030BD9A600068C160BB
:101F600030BD704772B6FEE7F8B50025044600950F
:101F700090F8240001280BD0012084F8240020468A
:101F8000FFF70CFF2046FFF76DFF060002D050E080
:101F90000220F8BDA06A20F4885040F00200A06240
:101FA000022000F0FBFD25490968B1FBF0F040007C
:101FB00000E0401E00900028FBD12068816841F0BD
:101FC0000801816000F01AFD074608E000F016FDE8
:101FD000C01B0A2803D920688068000715D4206830
:101FE00080680007F2D42068816841F004018160B4
:101FF00000F004FD074612E000F000FDC01B0A28B7
:102000000DD920688068400709D5A06A20F0020039
:1020100040F01000A06284F824500120F8BD206830
:1020200080684007E8D4A06A20F0020040F0010078
:10203000A06284F824503046F8BD00002C00002037
:1020400070470000F8B50024009490F8242025463D
:10205000012A12D0012280F824204A681F23072A6F
:102060000DD20668776B521E02EB820293409F43AB
:102070000B6893401F43776319E00220F8BD0668A0
:102080000D2A0AD2376BD21F02EB820293409F4384
:102090000B6893401F43376309E0F76A0D3A02EB80
:1020A000820293409F430B6893401F43F7620A6884
:1020B000072306680A2A0AD3F7680A3A02EB4202A3
:1020C00093409F438B6893401F43F76008E0376954
:1020D00002EB420293409F438B6893401F4337615A
:1020E0000A68102A01D0112A20D1124B02689A42A4
:1020F00017D193681B0219D4936843F400039360CB
:102100000968102912D10C490C4A0968B1FBF2F197
:1021100001EB8101490000E0491E00910029FBD13B
:1021200004E0816A41F020018162012480F824509A
:102130002046F8BD002401402C00002040420F0042
:1021400070477047704770B5044600680668456878
:10215000A90625D5B10723D5A16AC90603D4A16A6A
:1021600041F40071A1628168C1F34241072910D195
:10217000217B71B9416821F020014160A06A20F4FF
:102180008070A062A06AC00403D4A06A40F001007D
:10219000A0622046FFF7D4FF21686FF012000860AC
:1021A00028062ED570072CD5A06AC00603D4A06AD5
:1021B00040F40050A06220688168C1F30231072911
:1021C00009D04168490515D48168C1F34241072906
:1021D00010D1217B71B9416821F080014160A06A72
:1021E00020F48050A062A06AC00503D4A06A40F029
:1021F0000100A0622046FFF723FF21686FF00C006A
:10220000086068060CD5F0070AD0A06A40F4803058
:10221000A062204600F094F821686FF00100086089
:1022200070BD00002DE9F0414FF0000704003D466D
:102230007ED0A06A002628B9E66284F82460204691
:1022400000F080F82046FFF7A9FDA16AC90600D476
:1022500020B1A06A40F01000A06269E0A16A21F4F8
:10226000885141F00201A1626268E169237B0A435F
:1022700047EA43010A43A1684FF48077B94209D085
:10228000012907D05FF0000194F814C0BCF1010FE0
:1022900002D00AE03946F7E7F3B1A36A43F020031E
:1022A000A362E36A43F00103E3622368D3F804C046
:1022B0002CF4694C4CEA010CC3F804C021688B680B
:1022C000DFF870C003EA0C0313438B60A168B942C6
:1022D0000BD0012909D00CE0DFF85CC0A3690CEB3E
:1022E00043330B4343F40061DFE7218A0D05A5F575
:1022F00080152168CB6A23F470032B43CB622168DD
:1023000089680E4B1940914208D1E662A16A21F01A
:10231000020141F00101A162BDE8F081A06A20F054
:10232000020040F01000A062E06A40F00100E062AC
:102330000120F1E7FDF7E1FF00E0FFFFFE0E1FFFC8
:102340007047000070B586B00025064600950195DF
:102350000295039500682549884244D1244988693B
:1023600040F400708861886900F400700490886906
:1023700040F004008861886900F0040004908869D6
:1023800040F0080088618869032400F00800049088
:10239000B020CDE900046946164800F039FA0094EF
:1023A00069461548019400F033FA154C1348C4E906
:1023B00000058020C4E90250400020618000606177
:1023C0002020C4E90605204600F0BCF908B1FFF75B
:1023D000C9FD3462002206211220666200F0ACFBC7
:1023E000122000F09BFB06B070BD000000240140ED
:1023F0000010024000080140000C014008000240AB
:102400004C0100202DE9F047894604463B4900680D
:102410003B4F0E1D9046884201D0B84207D130682C
:1024200010F4702F03D001252846BDE8F08794F8FA
:10243000240001280CD0012084F824002046FFF756
:1024400011FD05004FF0000004D084F82400EBE7F4
:102450000220EAE7A16A40F60162914341F48071EB
:10246000A1622168B94218D1326812F4702F14D0D9
:10247000A16A41F48011A1623168490505D5A16ABC
:1024800021F4005141F48051A162A16AC9040AD526
:10249000E16A21F00601E16206E0A26A22F48012FC
:1024A000A2624968E9E7E06284F82400216A1548DD
:1024B0008862216A1448C862216A14480863216846
:1024C0006FF0020008602068816841F480718160CB
:1024D000216843464A464C31206A00F061F9206881
:1024E0008168C1F342410729816803D041F480111A
:1024F000816099E741F4A001FAE70000002401405F
:1025000000280140F31D00085B1E0008411E000862
:1025100010B590F821100022022905D00421816312
:1025200080F82020012010BD01680B6823F00E0305
:102530000B6001680B6823F001030B6090F84030DA
:10254000C46B012101FA03F3636080F8211080F865
:102550002020104610BD000010B590F82110002476
:10256000022903D00421816301243DE001680A6847
:1025700022F00E020A6001680A6822F001020A6075
:102580001A4A0168914201D1012121E0174A14320F
:10259000914201D110211BE0144A2832914201D10D
:1025A000891515E0114A3C32914201D189140FE09E
:1025B0000E4A5032914202D14FF4803108E00B4A6A
:1025C0006432914202D14FF4801101E04FF08071EA
:1025D000064A083A5160012180F82110002180F854
:1025E0002010416B01B18847204610BD0800024011
:1025F0002DE9F05FC16B0C6801680B68D0F840C032
:10260000042202FA0CF2494DDFF824A1494E4A4F48
:10261000DFF828B1DFF828E122422CD05A072AD56A
:102620000A68920603D40A6822F004020A6001686C
:10263000A94201D1042219E0514501D1402215E0FF
:10264000B14202D14FF4806210E0B94202D14FF49E
:1026500080420BE0594502D14FF4802206E07145DB
:1026600002D14FF4800201E04FF080622F49083917
:102670004A60C16A3BE04FF0020808FA0CF818EA19
:10268000040F4FF000094FF0010235D05FEA837864
:1026900032D50B689B0605D40B6823F00A030B6048
:1026A00080F821200168A94201D1022219E0514598
:1026B00001D1202215E0B14202D14FF4007210E0A6
:1026C000B94202D14FF400520BE0594502D14FF408
:1026D000003206E0714502D14FF4001201E04FF0E4
:1026E0000072124908394A6080F82090816A0029F6
:1026F0001AD0BDE8F05F0847082505FA0CF5254219
:1027000012D01B0710D50B6823F00E030B6090F856
:102710004010C36B02FA01F15960826380F82120F6
:1027200080F82090016BE2E7BDE8F09F08000240CE
:102730001C000240300002404400024058000240A9
:102740006C00024030B528B308C81349142219445C
:10275000B1FBF2F18900C163104981630221417725
:102760001A6843F6F0718A43D0E900142143D0E996
:1027700002452C4321430469214344692143846970
:1027800021431143196000214163012242770177FF
:10279000084630BD012030BDF8FFFDBF00000240FB
:1027A00070B5044690F82000002501280CD00120C7
:1027B00084F8200094F821600020012E06D084F8CF
:1027C00020000225284670BD022070BD022684F834
:1027D0002160A0632068066826F001060660204696
:1027E000FFF7AAFBE06A00282068016802D041F0E8
:1027F0000E0106E021F0040101602068016841F04B
:102800000A0101602068016841F001010160D9E717
:102810002DE9F84FDFF8B8910024A9F1040B234605
:102820000F2709F1040AABF1040EC9E00125A54008
:102830002A40AA427DD1674ED1F804C0ACEB06080D
:10284000B44532D014DCBCF1030F3AD009DCBCF142
:10285000000F2AD0BCF1010F1CD0BCF1020F31D106
:102860001DE0BCF1110F17D0BCF1120F2AD119E0F5
:10287000B8F5881F19D006DCB8F5803F15D0B8F53B
:10288000801F1FD111E0B8F5001F0ED0B8F5041F4E
:1028900018D10AE0CB6815E0CB681B1D12E0CB68AD
:1028A00008330FE0CB680C330CE08B682BB1012BA5
:1028B0004FF0080303D0456104E0042302E0056102
:1028C00000E00023FF2A01D8064601E000F10406DB
:1028D0004FEA840501D9A5F12005D6F8008007FA52
:1028E00005FC28EA0C0803FA05F548EA0508C6F8CD
:1028F00000804D68ED0062D5374DAE6946F00106A7
:10290000AE61AD6924F0030605F001050095334D75
:1029100006EB050CDCF80850A607360F07FA06F898
:1029200025EA0805DFF8B880404503D14FF00008DC
:1029300017E044E0DFF8AC80404502D14FF00108D9
:102940000FE0DFF8A480404502D14FF0020808E014
:10295000DFF89880404502D14FF0030801E04FF0C6
:10296000040808FA06F848EA0508CCF808804D681B
:10297000D9F80060ED024D4601D5164300E09643BC
:102980002E604D68DAF80060AD02554601D5164359
:1029900000E096432E604D68DBF80060AD035D46B5
:1029A00001D5164300E096432E604D68DEF80060C6
:1029B000ED03754601D5164300E096432E60641C76
:1029C0000D682A46E5407FF431AFBDE8F88F00007E
:1029D00008040140000011100010024000000140F6
:1029E00000080140000C01400010014000140140AB
:1029F0000AB1016170470904FBE7000001488068E3
:102A000070470000200000200248816802781144CD
:102A10008160704720000020074810B5016841F030
:102A200010010160032000F0A7F80F2000F006F865
:102A300000F050F8002010BD0020024030B50546DF
:102A4000204887B0C16941F00101C161C06906A990
:102A500000F00100009001A800F0FEF90498B8B160
:102A600000F01AFA400018494FF08042B0FBF1F133
:102A70001648491E0260416040F2E7320021C0E979
:102A800003218160816100F03DFC040003D015E06A
:102A900000F002FAE7E70D4800F062FC04000DD1F7
:102AA0001C2000F03BF8102D07D2002229461C20E4
:102AB00000F042F80648056000E0012407B0204617
:102AC00030BD00000010024040420F00940400207E
:102AD000240000200F4808B5816941F0010181619F
:102AE000816901F001010091C16941F08051C1612A
:102AF000C069002200F0805000900F21901E00F06D
:102B00001BF80548416821F0E06141F00071416027
:102B100008BD00000010024000000140002809DB51
:102B200000F01F02012191404009800000F1E020E7
:102B3000C0F8001170470000F0B40E4B1B680C4643
:102B4000C3F30223C3F10705042D00D90425191D81
:102B5000072901D2002300E0DB1E012606FA05F159
:102B6000491E214099409E40761E16403143F0BCDC
:102B700003F02BBB0CED00E0064900F007020868EB
:102B80004FF6FF03184040EA0220034A1043086052
:102B9000704700000CED00E00000FA0510B501469A
:102BA0000020234C012922D0022939D010291DD11F
:102BB00061682268D20119D51E48C1F38342C90356
:102BC000805C0AD561681B4AC1F34041921E515C8A
:102BD000194AB2FBF1F1484301E0184948436168E2
:102BE000490203D440000321B0FBF1F010BD226A7A
:102BF000C2F30121012903D1920701D5C80310BDF9
:102C0000022905D1626A920702D549F6404010BDFB
:102C10000329FCD121688903F9D54FF2244010BD66
:102C200000F04AF96168C1F38131491C4900DBE7D2
:102C3000001002406884000800127A0000093D007C
:102C40002DE9F84305460078354CC00754D0E069BB
:102C50000026C00008D4E06940F08050E061E069DF
:102C6000012600F0805000902E480168C90512D45A
:102C70000168804641F480710160FFF7BFFE07469E
:102C800005E000BFFFF7BAFEC01B642823D8D8F8C0
:102C90000000C005F6D5206A10F4407021D0A98844
:102CA00001F4407181421CD0206A1F49012220F4A6
:102CB00040700A6000220A602062C00711D0FFF74E
:102CC0009DFE074641F2883808E000BFFFF796FEF8
:102CD000C11B414502D90320BDE8F883206A800763
:102CE000F4D5206A696820F44070084320621EB160
:102CF000E06920F08050E0612878800705D56068A1
:102D0000A96820F44040084360602878C00605D5D3
:102D10006068E96820F48000084360600020DBE719
:102D20000010024000700040400442422DE9F0478C
:102D30000F46050061D0434E306800F00700B842EE
:102D400009D2306820F0070038433060306800F066
:102D50000700B84251D128683B4C810712D5400783
:102D600003D5606840F4E06060602878000703D510
:102D7000606840F4605060606068A96820F0F0000E
:102D8000084360602878C00728D06868012810D000
:102D90002168022810D0890700292EDA616821F005
:102DA000030101436160FFF729FE804641F2883943
:102DB0000DE021688903EFE78901EDE7FFF71EFECB
:102DC000A0EB0801494502D90320BDE8F0876068FF
:102DD000696800F00C00B0EB810FEFD1306800F0B3
:102DE0000700B8420BD9306820F007003843306044
:102DF000306800F00700B84201D00120E5E72878EC
:102E0000400705D56068E96820F4E0600843606029
:102E10002878000706D56068296920F4605040EAE8
:102E2000C100606000F058F86168084AC1F30311FE
:102E3000515CC8400649086006480068FFF7FEFD7F
:102E40000020C2E700200240001002407884000801
:102E50002C000020240000200F2202600C4A53683E
:102E600003F003034360536803F0F0038360536887
:102E700003F4E063C36052684FF4E06303EAD202F4
:102E800002610448006800F0070008607047000015
:102E900000100240002002400448054900684968CB
:102EA000044AC1F30221515CC84070472C00002045
:102EB00000100240888400080448054900684968F9
:102EC000044AC1F3C221515CC84070472C00002065
:102ED00000100240888400080E4A51680E4801F034
:102EE0000C03042B11D0082B0FD10C48C1F38343E2
:102EF000C903C05C0AD55168084AC1F34041921E1B
:102F0000515C054A5043B0FBF1F070470449484317
:102F1000704700000010024000127A00568400083A
:102F200000093D002DE9F84F040070D02078C04D15
:102F3000C00749D06868C0F38100012807D06868DD
:102F4000C0F38100022809D16868C00306D528684B
:102F5000800339D560680028E7D035E06068B0F5B7
:102F6000803F0BD010B1B0F5A02F11D0286820F40D
:102F700080302860286820F4802002E0286840F42F
:102F800080302860606890B1FFF738FD06460AE09F
:102F9000286840F480202860F0E700BFFFF72EFD8E
:102FA000801B642873D828688003F7D50CE0FFF7EE
:102FB00025FD064605E000BFFFF720FD801B6428C5
:102FC000F0D828688003F7D420789A4E80074FF015
:102FD00001094FF0000839D5686810F00C0F07D0D0
:102FE0006868C0F38100022809D16868C00306D46C
:102FF0002868800714D52069012808D110E02069CD
:10300000B0B1C6F80090FFF7F9FC074605E00AE109
:10301000FFF7F4FCC01B0228C4D828688007F7D546
:103020002868616920F0F80040EAC10028600DE0DE
:10303000C6F80080FFF7E2FC074604E0FFF7DEFC7D
:10304000C01B022823D828688007F7D420780007FF
:103050002CD57948A169D9B1C0F80090FFF7CEFC12
:10306000074604E0FFF7CAFCC01B02280FD8686AB5
:103070008007F7D571484FF4FA510068B0FBF1F0C2
:10308000009000BF0098411E0091FAD20EE080E04F
:10309000C0F80080FFF7B2FC074604E0FFF7AEFC83
:1030A000C01B022875D8686A8007F7D420784007CB
:1030B00060D5E8690027C00008D4E86940F0805076
:1030C000E861E869012700F0805000905C480168E1
:1030D000C90513D40168834641F480710160FFF78C
:1030E0008DFC824606E000BFFFF788FCA0EB0A00DB
:1030F00064284ED8DBF80000C005F5D5E06801284B
:103100000AD008B1052813D0286A20F001002862EF
:10311000286A20F0040002E0286A40F001002862DA
:10312000E06841F2883B98B1FFF768FC82460BE00B
:10313000286A40F004002862EEE700BFFFF75EFC5B
:10314000A0EB0A0159455AD8286A8007F6D50CE049
:10315000FFF754FC824605E0FFF750FCA0EB0A01A4
:1031600059454CD8286A8007F6D41FB1E86920F089
:103170008050E861E06988B36968C1F38101022980
:1031800044D00228C6F8608004D0FFF737FC04461C
:1031900038E034E0FFF732FC074604E0FFF72EFC8E
:1031A000C01B02282BD828688001F7D4206AB0F50C
:1031B000803F05D16868A16820F40030084368604A
:1031C000D4E908010843696821F474110843686070
:1031D000C6F86090FFF712FC044606E025E000BF49
:1031E000FFF70CFC001B022809D828688001F7D5DE
:1031F0001BE000BFFFF702FC001B022802D90320DE
:10320000BDE8F88F28688001F4D40EE00128F7D0DB
:103210006868226A00F48031914204D1616A00F446
:103220007010884201D00120EAE70020E8E70000A2
:103230000010024000004242800442422C00002064
:10324000007000407047704710B590F83C20012A8C
:1032500022D0012280F83C20CA688C6822F4407297
:1032600022434C6822F4806222430C6822F40062FC
:1032700022430C6922F4805222434C6922F400520A
:103280002243C969002322F480420A4301684A6448
:1032900080F83C30002010BD022010BD70B590F8C1
:1032A0003C20012A26D0012480F83C40022280F8EC
:1032B0003D2003685A689D6822F070060A68324310
:1032C0005A600D4B02689A4208D0B2F1804F05D087
:1032D0000A4B9A4202D00A4B9A4204D1496825F01F
:1032E00080031943916080F83D40002180F83C1034
:1032F000084670BD022070BD002C01400004004053
:103300000008004010B5040003D094F83D0010B14F
:1033100007E0012010BD002084F83C00204600F0AA
:103320001EF8022084F83D00211D206801F06CFF8A
:10333000012084F8460084F83E0084F83F0084F8B9
:10334000400084F8410084F8420084F8430084F887
:10335000440084F8450084F83D00002010BD70470B
:1033600090F83D10012901D001207047022180F81A
:103370003D100168CA6842F00102CA6000680B494A
:10338000884208D0B0F1804F05D00949884202D068
:103390000849884204D1816801F00701062903D059
:1033A000016841F00101016000207047002C0140DC
:1033B0000004004000080040074910B5884209D1C8
:1033C000007F012806D1054C6068401C6060FFF753
:1033D00015FBA06010BD0000D8010020D000002027
:1033E0002DE9F041054690F83C0000260C460128E6
:1033F00010D0012085F83C0072B1042A1CD0082AA4
:103400002CD00C2A50D00126002085F83C003046F4
:10341000BDE8F0810220FBE7D4E90012E3682868E8
:1034200001F0DEFF2868816921F00C0181612868C4
:103430008169A26811430FE0D4E90012E3682868AB
:1034400001F0FAFF2868816921F4406181612868F0
:103450008169A26841EA02218161D5E72868D4E93F
:10346000002C277B036A016A21F480710162C16923
:1034700023F4007321F0030141EA0C0121F0F00C68
:1034800039074FF400774CEA116107EA02221A4328
:10349000C16102622868C16921F00C01C16128681C
:1034A000C169A26811432BE02868D4E90021E768CC
:1034B000036AD0F820C02CF4805CC0F820C0D0F89B
:1034C0001CC023F400532CF4407C4CEA012121F46D
:1034D000704C4FF6FF7101EA07314FF4005741EA93
:1034E0000C0107EA02321A43C16102622868C1690D
:1034F00021F44061C1612868C169A26841EA0221E2
:10350000C16181E710B5040003D094F83D0010B10B
:1035100007E0012010BD002084F83C00204600F0A8
:103520001FF8022084F83D00211D206801F06CFE88
:10353000012084F8460084F83E0084F83F0084F8B7
:10354000400084F8410084F8420084F8430084F885
:10355000440084F8450084F83D00002010BD0000C0
:1035600000B585B00021009101910291039100689E
:10357000114988421ED11148C16941F00201C1615F
:10358000C16901F002010491816941F00401816186
:103590008069694600F004000490402000900848CB
:1035A000FFF736F9002206211D20FFF7C5FA1D207E
:1035B000FFF7B4FA05B000BD00040040001002405F
:1035C0000008014030B50446002551B104290DD052
:1035D000082910D094F8410094F84520012811D111
:1035E0000EE094F83E0094F84220F7E794F83F008C
:1035F00094F84320F2E794F8400094F84420EDE773
:10360000012A01D0012030BD022059B1042912D075
:10361000082919D084F8410084F845000C2938D0D5
:10362000012534E084F83E0084F842002068C26836
:1036300042F0020210E084F83F0084F84300206862
:10364000C26842F0040207E084F8400084F84400B5
:103650002068C26842F00802C2600122206801F0BE
:103660000FFE0E492068884208D0B0F1804F05D087
:103670000B49884202D00B49884204D1816801F08D
:103680000701062903D0016841F0010101602846C5
:1036900030BD2068C26842F01002DDE7002C014016
:1036A00000040040000800402DE9F0410446006895
:1036B000C66805694FF00007A90713D5B10711D5F2
:1036C000F91E01610120207720688069800720466B
:1036D00002D0FFF771FE04E000F0BCF8204600F0D5
:1036E0006DF92777680716D5700714D521686FF034
:1036F00004000861022020772068806910F4407F70
:10370000204602D0FFF758FE04E000F0A3F8204660
:1037100000F054F92777280715D5300713D521680D
:103720006FF008000861042020772068C0698007D6
:10373000204602D0FFF740FE04E000F08BF8204660
:1037400000F03CF92777E80616D5F00614D5216875
:103750006FF010000861082020772068C06910F41D
:10376000407F204602D0FFF727FE04E000F072F809
:10377000204600F023F92777E80708D0F00706D0A5
:1037800021686FF001000861204600F067F9280603
:1037900008D5300606D521686FF080000861204604
:1037A000FFF750FD680608D5700606D521686FF052
:1037B00040000861204600F058F9A8060AD5B00676
:1037C00008D521686FF0200008612046BDE8F0416F
:1037D000FFF739BDBDE8F08100B585B0002100914B
:1037E000019102910391164B0268164802219A42F8
:1037F0000FD1826942F0040282618069039100F076
:10380000040004904FF41060CDE9000169460E48B1
:1038100011E00E4B9A4210D1826942F00802826197
:103820008069039100F0080004904FF47070CDE9B6
:10383000000169460648FEF7EBFF05B000BD000039
:10384000002C014000100240000801400008004028
:10385000000C0140704770B5044690F83C0000260B
:103860000D4601280FD0012084F83C006AB1042ADB
:103870001DD0082A2FD00C2A3FD00126002084F822
:103880003C00304670BD022070BD206801F006FD8E
:103890002068816941F0080181612068816921F017
:1038A00004018161206881692A69114311E020685F
:1038B00001F01CFD2068816941F40061816120688C
:1038C000816921F480618161206881692A6941EA06
:1038D00002218161D2E7206801F034FD2068C169CE
:1038E00041F00801C1612068C16921F00401C16192
:1038F0002068C1692A69114311E0206801F04EFD7A
:103900002068C16941F40061C1612068C16921F486
:103910008061C1612068C1692A6941EA0221C161EF
:10392000ACE710B5040003D094F83D0010B107E0F7
:10393000012010BD002084F83C00204600F01EF855
:10394000022084F83D00211D206801F05DFC01206B
:1039500084F8460084F83E0084F83F0084F8400074
:1039600084F8410084F8420084F8430084F844005D
:1039700084F8450084F83D00002010BD08B50C4ACD
:1039800001680C48914207D1816941F4006181616D
:10399000806900F4006009E0074A914207D1C169DB
:1039A00041F00401C161C06900F00400009008BD4D
:1039B000002C014000100240000800407047000049
:1039C00010B50446022249B104290ED0082913D0AB
:1039D00094F84100012816D0012010BD94F83E0053
:1039E0000128F9D184F83E200FE094F83F00012827
:1039F000F2D184F83F2008E094F840000128EBD190
:103A000084F8402001E084F841200122206801F080
:103A100037FC0F492068884203D1426C42F40042CF
:103A200042642068884208D0B0F1804F05D009492F
:103A3000884202D00849884204D1816801F0070118
:103A4000062903D0016841F001010160002010BD8A
:103A5000002C014000040040000800400068B0F164
:103A6000804F01D1FEF7D0BF7047704738B504468C
:103A700090F84200202801D0022038BD51B14AB14F
:103A80000120206300206063204602F0E9FA216BE8
:103A9000012901D0012038BD21680A6849680091D8
:103AA00021680C3151E8002F42F0100241E8002358
:103AB000002BF5D138BD02F00FB810B5044601F067
:103AC000E5FD2046BDE8104000F0E2BAF8B5016817
:103AD00004460868CA684B6910F00F0F4FF00005E4
:103AE00059D003F0010602F49077374365D0C1073F
:103AF00005D0D10503D5616C41F001016164410736
:103B000005D5D90703D0616C41F0020161648107DA
:103B100005D5D90703D0616C41F004016164010748
:103B200007D502F02001314303D0616C41F0080158
:103B30006164616C00293AD0800604D5900602D5F4
:103B4000204602F0D0F920684069616CC0F3801013
:103B5000090700D460B3204602F090F9206840695C
:103B6000400621D52068143050E8001F21F04001A4
:103B700040E80012002AF5D1E06BA8B16D4941631D
:103B8000E06BFEF7E9FC002811D0E06B416B01B05F
:103B9000BDE8F040084783060FD593060DD52046B3
:103BA000BDE8F84002F09FB92046FFF786FFF8BD58
:103BB0002046FFF782FF6564F8BD266B2023012EA7
:103BC0007CD1C6067AD5D60678D5086848680090B4
:103BD00048694FF00206400640D5E16B086840682E
:103BE0000004000CE8D0A28D8242E5D9E085886906
:103BF00020282DD020680C3050E8001F21F480715F
:103C000040E80012002AF5D12068143050E8001F67
:103C100021F0010140E80012002AF5D1206814309B
:103C200050E8001F21F0400140E80012002AF5D1C1
:103C300084F84230256320680C3050E8001F21F0E2
:103C4000100140E80012002AF5D1E06BFEF760FC9D
:103C50006663A08DE18D401A81B22AE0A08DE18DCE
:103C6000401A81B2E08D0028A6D00029A4D0226895
:103C70000C3252E8000F20F4907042E80007002F49
:103C8000F5D12068143050E8002F22F0010240E8FE
:103C90000027002FF5D184F84230256320680C30CE
:103CA00050E8002F22F0100240E80023002BF5D14D
:103CB00066632046FFF7FFFEF8BDFFE705062BD53C
:103CC000150629D594F841002128F5D1A068B0F552
:103CD000805F01D12069B0B1206A411C2162216856
:103CE00000784860E08C401E0004000CE084E3D1C2
:103CF0002068C16821F08001C1602068C16841F07E
:103D00004001C160D8E7206A0088C0F3080048601D
:103D1000206A801C2062E5E74006CDD55006CBD551
:103D2000CA68204622F04002CA6084F8413000F0A0
:103D3000A3F9C1E7335D000870B5040004D094F81E
:103D40004100002510B106E0012070BD84F840500C
:103D5000204600F023F8242084F841002068C16840
:103D600021F40051C160204602F01EF9206801696B
:103D700021F4904101612068416921F02A014161EB
:103D80002068C16841F40051C1606564202084F856
:103D9000410084F842006563002070BD2DE9F047C2
:103DA00086B0002400940194029403940546DFF841
:103DB0002882D0F800C0894802210322884B1027AE
:103DC00080264FF480694FF0200AC44558D1D0F8BE
:103DD00018C04CF4804CC0F818C0D0F818C00CF4CF
:103DE000804CCDF810C0D0F818C04CF0040CC0F8CE
:103DF00018C08069039200F0040004900802CDE925
:103E00000001694698461846FEF702FDCDE9009488
:103E1000694640460294FEF7FBFCDFF8CC8171490D
:103E20004046B146C0E90014C0E90246C8F8104057
:103E3000C8E9054AC8F81C40FEF784FC08B1FEF743
:103E400091F8694E6748C5F83C8044361438C8F884
:103E500024503060C6E90174C6E903947461B4610A
:103E60003046F461FEF76EFC08B1FEF77BF8AE63F6
:103E70000022052125207562FEF75EFE252060E008
:103E8000DFF86881C44561D1D0F81CC04CF4003C17
:103E9000C0F81CC0D0F81CC00CF4003CCDF810C019
:103EA000D0F818C04CF0040CC0F818C08069039218
:103EB00000F0040004900420CDE900016946984612
:103EC0001846FEF7A5FC0820CDE9000469464046E7
:103ED0000294FEF79DFCDFF81081424908F1880842
:103EE00040462831C0E90246C8F81040C8F81440DE
:103EF000C8F81840C8E90017C8F81C40FEF722FCB3
:103F000008B1FEF72FF8384F3648C5F83880CC375F
:103F10001430C8F82450C7E90004C7E902463C61E0
:103F2000C7E9054A3846FC61FEF70CFC08B1FEF70C
:103F300019F8EF630022052126207D62FEF7FCFDC3
:103F40002620FEF7EBFD06B0BDE8F087284B9C4528
:103F5000F9D1C36943F48023C361C36903F48023A7
:103F60000493836943F0080383618069CDE900917C
:103F700000F00800CDE90320DFF87880694640466C
:103F8000FEF746FC4FF40060CDE900046946404668
:103F90000294FEF73DFCDFF86080124940463C3950
:103FA000C0E90246C8F81040C8F81440C8F81840E4
:103FB000C8E90017C8F81C40FEF7C4FB08B1FDF7BC
:103FC000D1FFC5F83880002206212720C8F82450E8
:103FD000FEF7B2FD2720B4E7003801400010024090
:103FE0000008014058000240400300200044004007
:103FF00000480040000C014050040020704770470A
:1040000070B5044690F84100202801D0022070BD10
:1040100049B342B32162A284E28400206064212378
:1040200084F84130A56B114BAB62A56B104BEB6272
:10403000A56B104B2B63A36B5863256813462A1D91
:10404000A06BFEF7ADFB21686FF0400008602068B0
:10405000143050E8001F41F0800140E80012002AAF
:10406000F5D1002070BD012070BD0000315E000858
:10407000735E0008435D000810B5044601F047FE7A
:104080002046BDE8104000F031B97047FEE700005F
:1040900070B504461648844228D1164D0120287078
:1040A0002068143050E8001F21F0800140E8001221
:1040B000002AF5D120680C3050E8001F21F04001A3
:1040C00040E80012002AF5D1A06B08B1FEF720FAF3
:1040D000202084F84100EFF3108072B6002169704F
:1040E00000B962B6BDE8704000F064B870BD000071
:1040F000F8020020B0000020EFF3108072B600211B
:10410000044A518091805170117000B962B602A0CA
:1041100000F011B8B00000204C4F472069732072A6
:10412000656164790D0A0000401C80B2B0F5007F23
:1041300000D3002070472DE9F041060014D0FCF7B1
:1041400001F904464FF480374FF6FF780AE0BC428D
:1041500001D3454600E0A5B22946304600F0D8F824
:104160002E44641B002CF2D1BDE8F0810FB430B5B1
:10417000A9B02C9A002A16D000242DABA0216846A5
:10418000FCF7C6F80A4D002801DA01200AE0A02851
:1041900001D39F20012481B2684600F0B9F8002CB9
:1041A00001D00220287029B030BC5DF814FB00005B
:1041B000B00000202DE9F0470026EFF3108572B61D
:1041C0001D4C607818B96088A188884202D175B307
:1041D000BDE8F08701206070A788DFF8608008F5EF
:1041E000007909E018F8071009F806103846FFF7BB
:1041F0009BFF761C0746B6B26088874201D0402EEE
:10420000F0D305B962B600255EB132460C490D48BF
:10421000FFF7F6FE01002170EFF3108072B608D0B0
:1042200002E0EFF3108072B665700028D0D162B65C
:10423000CEE7A780F9E70000B0000020B0390020E9
:10424000B03B0020F80200204FF47A7400F004F82C
:10425000204602F0CDF8F9E72DE9F04F8FB000F0DD
:10426000CBFC04004FF02B0702D540422D2704B2AF
:1042700000F0AAFC064600F0B9FE0B9000F0AEFE7E
:104280000A9000F0ADFC824600F0A4FC089001F01A
:104290005BFF834601F06EF9069000F0E5FB0590A8
:1042A00000F01AFB0A250490B6FBF5F005FB106937
:1042B000B6FBF5F600F0B6FC019000F0B9FC94FBFB
:1042C000F5F194FBF5F205FB1141CDF81CB0CDE9F9
:1042D0000269CBB200903946CDF824A00248FFF71E
:1042E00045FF0FB0BDE8F08F0C86000806498842F4
:1042F00009D1EFF3108072B60021044A517000B961
:1043000062B6FFF757BF7047F8020020B0000020E8
:104310002DE9F0470F465FEA000823D0002F21D097
:10432000EFF3108672B600250F4CDFF840900FE0D7
:104330006088FFF7F9FEA188884201D102200AE0D7
:1043400018F80520638809F8032060806D1CADB261
:10435000BD42EDD30020207006B962B6BDE8F0473B
:10436000FFF728BFBDE8F087B0000020B03900207B
:10437000FEB50021274800910191254A0291026073
:104380009215826001250573017505244FF46022A2
:104390000461C2614160FDF745FF08B1FDF7E2FD30
:1043A000042606200096CDE9015069461948FDF71C
:1043B00049FE08B1FDF7D6FD0220CDE9004069466F
:1043C0001448FDF73FFE08B1FDF7CCFD0720009033
:1043D0000320019069460F48FDF734FE08B1FDF750
:1043E000C1FD0820CDE9000669460A48FDF72AFE0E
:1043F00008B1FDF7B7FD0920CDE90004694605487D
:10440000FDF720FE002801D0FDF7ACFDFEBD000049
:10441000002401401C0100201D4808B5416941F0FD
:10442000010141614069002200F001000090062175
:104430000B20FEF781FB0B20FEF770FB002206210C
:104440000C20FEF779FB0C20FEF768FB002206210A
:104450000E20FEF771FB0E20FEF760FB0022062106
:104460000F20FEF769FB0F20FEF758FB0022062104
:104470001020FEF761FB1020FEF750FB0022062102
:104480001120FEF759FBBDE808401120FEF746BB9E
:104490000010024010B500F0DBFB01F057F800F00F
:1044A00027FA00F0EDFA01F041FE00F0CBFDFFF736
:1044B00023FE01F04DF91C4A00211C4801F0D4FFF5
:1044C0001B4C194A0021206024321A4801F0CCFF0D
:1044D000154A606048320021174801F0C5FF124AB2
:1044E000A0606C320021154801F0BEFF0E4AE0606A
:1044F00090320021124801F0B7FF0B4A2061B4321C
:104500000021104801F0B0FF074A6061D832002155
:104510000D4801F0A9FF044AA061FC3200210B48BC
:1045200001F0A2FFE06110BD34830008654E000871
:10453000000000207D540008A5490008014B000838
:1045400055610008E31E000849420008E5510008D3
:104550002DE9F04186B0002520480095019502958F
:104560000395816941F020018161816901F0200199
:104570000491816941F004018161816901F00401C4
:104580000491816941F0080181618069144F00F054
:10459000080048F202040490002221463846FEF743
:1045A00027FADFF8408041F23806002231464046C3
:1045B000FEF71EFA00940124CDE90145694638460C
:1045C0000394FEF725F90096CDE90145694640467A
:1045D0000394FEF71DF906B0BDE8F081001002401B
:1045E00000080140000C014010B592B000240F9467
:1045F0001C2168461094FBF765FF202107A8FBF7F4
:1046000061FF2448224901604721C0E9011440F2BA
:10461000E731C0E9031444618461FFF782F908B10E
:10462000FDF7A0FC0F940FA91A481094FEF736FE70
:1046300008B1FDF797FC6020CDE9000402940394D3
:10464000049405940022694612480694FFF703F982
:1046500008B1FDF787FC0C2269460E48FFF7FBF80E
:1046600008B1FDF77FFC0794089409944FF40050BB
:104670000A94CDE90B4007A906480E94FEF7E4FD25
:1046800008B1FDF76FFC0348FFF7A6F812B010BDA4
:10469000002C01409001002010B586B0002418487D
:1046A00005940494009401940294144903940160C5
:1046B0000721C0E901144FF6FF71C0E903148461BA
:1046C000FEF720FF08B1FDF74DFC049404A90C4847
:1046D0000594FEF7E3FD08B1FDF744FC0120CDE9A8
:1046E000004002940022694605480394FEF778FED4
:1046F000002801D0FDF736FC06B010BD00040040D4
:10470000D801002010B58AB0002407941C21684607
:104710000894FBF7D7FE2248204901604721C0E9F1
:10472000011440F2F311C0E903148461FFF7F9F8B2
:1047300008B1FDF717FC079407A919480894FEF77C
:10474000ADFD08B1FDF70EFC6020CDE90004029438
:104750000022694612480494FFF77DF808B1FDF77E
:1047600001FC042269460E48FFF775F808B1FDF711
:10477000F9FB082269460A48FFF76DF808B1FDF712
:10478000F1FB0C2269460648FFF765F808B1FDF712
:10479000E9FB0348FFF720F80AB010BD000800400D
:1047A000200200200C4810B50A4901600B49416005
:1047B000002181600C22C160C0E904128161C161E5
:1047C000FFF7BAFA002803D0BDE81040FDF7CABBD6
:1047D00010BD000000380140680200200094110064
:1047E0000C4810B50A4901604FF4E13141600021E5
:1047F00081600C22C160C0E904128161C161FFF7D0
:104800009BFA002803D0BDE81040FDF7ABBB10BDFC
:1048100000440040B00200200C4810B50A49016075
:104820004FF4E1314160002181600C22C160C0E998
:1048300004128161C161FFF77FFA002803D0BDE84F
:104840001040FDF78FBB10BD00480040F80200206B
:10485000FEE7000010B5044659B100221146084891
:1048600000F076F82246BDE810400C21044800F024
:104870006FB802460021024800F06AF80022F2E711
:10488000900100200149002008717047B800002005
:10489000C268642900D96421501C48436421B0FBDC
:1048A000F1F0904200D9104670470000094988781D
:1048B000002807D14878012805D0022805D0032810
:1048C00005D000207047232070473C2070475520BA
:1048D00070470000B8000020014840787047000091
:1048E000B80000200148007970470000B80000209F
:1048F00010B500210B48FFF763F80C210948FFF7BA
:104900005FF8094C00206070A070E0702071607149
:104910002070FEF773F8E0602178BDE810400020B9
:10492000FFF798BF90010020B8000020032800D9AD
:1049300003200649002248708A7000B10120C87027
:10494000002802D10978FFF785BF7047B800002022
:1049500010B5044649B104290DD00829114610D0DC
:10496000FFF796FF2168086410BD1146FFF790FF1E
:104970002168486310BD1146FFF78AFF21688863EC
:1049800010BDFFF785FF2168C86310BD04480021F2
:1049900041708170C17001780020FFF75BBF00009B
:1049A000B800002000F004F8142001F021FDF9E720
:1049B00010B5FEF723F8154CE17859B1617949B18A
:1049C000E168A268411A914204D3217881B10021A3
:1049D0002170E06000F0FEF8E17859B140F6B8319E
:1049E000884207D901202071BDE81040FFF7CEBFF3
:1049F0000121EDE7FFF75AFFE1780029217800D186
:104A00000020BDE81040FFF725BF0000B8000020DF
:104A1000FEE7000070B50F4C0F4E4FF40045012823
:104A20000AD002280AD0002229463046FDF7E0FFCE
:104A300000221021204609E0002200E0012210217E
:104A40002046FDF7D5FF012229463046BDE87040DB
:104A5000FDF7CEBF000C01400008014001490020D5
:104A600048707047C8000020014800787047000077
:104A7000C80000200148407870470000C8000020AE
:104A800010B5064C002020706070FDF7B7FF606025
:104A9000BDE810400020FFF7BDBF0000C8000020A7
:104AA00070B5074C05462078854202D0FDF7A6FF79
:104AB000606025702846BDE87040FFF7ABBF00007E
:104AC000C800002010B500F08BF80B4C20780228AD
:104AD00011D1FDF793FF6168401A084988420AD94D
:104AE00000F0A6F8002806D001206070BDE8104054
:104AF0000020FFF7D5BF10BDC8000020E0930400E0
:104B0000FFF7E0FF322001F073FCF9E700280BD03B
:104B100000EB800040000A21B0FBF1F0B0F5803FCF
:104B200001D34FF6FF7080B27047000070B51A4E87
:104B3000052826D940F6FA71884222D203F0CAF934
:104B4000164903F0B1F8044601464FF07E55284659
:104B500003F006FB124903F005FA214603F0A4F81E
:104B6000A8420EDD0F4903F09FF801F053FB0E49F8
:104B700003F09AF80D4903F023F80146B0F5000F51
:104B800001DA304670BD284603F08EF8BDE870406B
:104B9000074903F0E5BA00000000C8C200F07F45F5
:104BA0000050C34700401C4600E076450FCF5B3BFA
:104BB0003393884348436421B0FBF1F03230B0FBBB
:104BC000F1F080B2704700000148008C704700008F
:104BD000103C00200148C08C70470000103C0020B1
:104BE0000148808C70470000103C00200148C069DB
:104BF00070470000103C0020074810B590F82910BD
:104C000039B1C069054903F0ADF903F00FF900B2FD
:104C100010BD034810BD0000103C002000002041E2
:104C200018FCFFFF0148806970470000103C00201D
:104C3000064810B540694FF07C5102F0C1FF03F007
:104C400011F9C0B20C2800D90C2010BD103C002076
:104C500010B51B48002404604460048114210C300A
:104C6000FBF730FC16482C212030FBF72BFC1448B6
:104C700014492030C161144884704161C47044609B
:104C80008460C460046104704470012208210F48EC
:104C9000FDF7AEFE0E48FDF767F9052208490C48FE
:104CA000FDF7B0FB08B1FDF75DF900210948FEF7FB
:104CB00089FC002803D0BDE81040FDF753B910BDB2
:104CC000F03B00200000C8C2D0000020000C0140D2
:104CD0001C010020D8010020014890F829007047ED
:104CE000103C0020014890F828007047103C00203C
:104CF0002DE9F041124AA0F50001124D124C9142EB
:104D000015D2E178012679B161690F4603F028FADE
:104D1000711F03F0D0FA394602F052FF6061E8617A
:104D200085F82960BDE8F0816061E670F7E7002052
:104D3000E07006496161E96185F82900F2E7000049
:104D400000002A42103C0020D00000200000C8C211
:104D50002DE9F05F384C06464FF001092078D0B1BC
:104D600020694FF47A7A371A0025DFF8D0804FF4A3
:104D7000FA6B574515D2A06818B1A068301A58458B
:104D800007D96570E560C8F81850C8F8145088F85D
:104D90002850BDE8F09F00F057F8266184F8009095
:104DA000F7E700F051F84FF47A71484300EB5700F1
:104DB000B0FBF7F02661A1680029E2D0A168711A62
:104DC0005945DED85045DCD349F640418842D8D811
:104DD000617811B3E168A1EBD1010844E060C0083B
:104DE00046F64C014646C8F81800884220D246F2E2
:104DF000C842134C90421AD9081A03F06BF82146A6
:104E000003F0B0F80F4902F04FFF0027054639467E
:104E100003F074F806D23D460AE0C000E06084F872
:104E20000190DCE72146284603F068F900D22546C8
:104E3000756186F82890ACE7D0000020103C002077
:104E40000000404100006144EFF3108172B6044A53
:104E5000506800235360002900D162B670470000FB
:104E6000D000002000F004F8142001F0C1FAF9E7A6
:104E70002DE9F041264D274E0020AB7806F10C01BC
:104E800001F1140440F2FF7740F6FF7C36F8102061
:104E9000DBB351F820E0AEEBDE0E724441F8202087
:104EA000C2F3CF0224F8102040F2393E02FB0EF28A
:104EB00007EB8202B2FBFCF204EB400E401CC0B2D6
:104EC000AEF80A200528E1D30120A870FDF796FD71
:104ED000FFF73EFF40F24C45A0892946FFF76AFEE6
:104EE000208460892946FFF765FE6084208AFFF7E9
:104EF0000DFEA084608AFFF709FEE084A088FFF71A
:104F000015FEBDE8F041FFF7F3BED200C6E7000092
:104F1000D0000020F03B002010B54FF0E0200069E9
:104F200002F06CFC012803D0BDE8104002F09AB9F1
:104F300010BD30B593B028216846FBF7C3FA1421A1
:104F40000AA8FBF7BFFA002501200F9510951195CF
:104F5000010412958DE8230004904FF4E010CDE990
:104F60000810022407946846FDF7DCFF08B172B60A
:104F7000FEE70AA90F2081E831004FF48060CDE9F7
:104F80000D0502210AA8FDF7D1FE08B172B6FEE7B1
:104F90004FF4004011900F940FA8FDF751FE002828
:104FA00001D072B6FEE713B030BD7047074810B5A8
:104FB00000218170C17000F05BFAFFF763FCFFF71E
:104FC0004DFDBDE8104001F0A5B80000E80000204C
:104FD0000148007970470000E8000020024880780E
:104FE00000F07F0070470000E80000200248C07811
:104FF00000F07F0070470000E800002001480078C2
:1050000070470000E8000020014840787047000029
:10501000E800002010B50A4CE068002806D0FDF733
:10502000EDFCE168081A002801DC002010BD4EF6F6
:105030005F210844491CB0FBF1F0C0B210BD000074
:10504000E800002006480021A12201704170817013
:10505000C1700271417181718160C160704700004F
:10506000E800002010B5034C0120A071FDF7C6FC3C
:10507000A06010BDE800002070B50C4D072813D2C9
:10508000DFE800F0120406080A0C0C00084C06E0E9
:10509000084C04E0084C02E0084C00E0084CFDF726
:1050A000ADFC2044E86070BD0020FBE7E800002074
:1050B000C0270900A0BB0D00804F120060E316005E
:1050C00040771B000149087170470000E80000208C
:1050D000014A107051707047E800002010B50020A0
:1050E00000F020FAFFF752FC0020FFF7D9FCBDE8E2
:1050F000104001F037B8000070B5364C0025A5709F
:10510000E570FFF795FD064600F02EFA30B9FFF77F
:10511000ABFC012802D001F017F820B11EB9A0782D
:1051200040F00100A070FFF7DDFD18B9A07840F055
:105130002000A070FFF7D0FD18B9A07840F0100053
:10514000A070FFF753FD2449884203DBA07840F0AC
:105150000400A07000F0F4F918B1E07840F001000C
:10516000E070FFF787FC18B1E07840F00200E070D3
:10517000FFF7B8FB18B1E07840F00800E07000F0ED
:10518000CFFF18B1E07840F01000E070FFF71CFD91
:10519000E06840B1FFF73EFF28B9E560FFF79EFFEA
:1051A000032020706570A079002812D0FDF726FC3E
:1051B000A168401AC8280CD9BFF34F8F074801686F
:1051C000074A01F4E06111430160BFF34F8F00BF54
:1051D000FDE770BDE800002000005C420CED00E03F
:1051E0000400FA05FFF788FF322001F001F9F9E722
:1051F0000148FEF759BA0000940400200148FEF768
:1052000053BA0000D8010020F0B50268194B1A4CBF
:105210001A4D4FF08047984205D0B84203D0A042C3
:1052200001D0A84203D122F070064A683243984266
:1052300005D0B84203D0A04201D0A84203D122F445
:105240004074CA6822434C6922F080022243026003
:105250008A68C2620A688262984201D10969016360
:10526000012141610169C90703D0016921F00101F0
:105270000161F0BD002C0140000400400008004026
:1052800010B501F01F030121046A99408C430462A8
:10529000016A9A401143016210BD000030B5036AF3
:1052A000026A22F0010202624268846924F07305F6
:1052B0000C682C4323F002058B682B430A4DA8424F
:1052C0000BD123F00805CB6822F440722B434D69C3
:1052D00023F0040315438A692A43426084614968C4
:1052E0004163036230BD0000002C014030B5026A0A
:1052F000036A23F010030362436884690D6824F491
:10530000E64444EA05248D6822F0200242EA0512B0
:105310000B4DA8420ED1CD6822F0800242EA051260
:105320004D6923F4406343EA85038D6922F040020E
:1053300043EA85034360846149688163026230BD4A
:10534000002C014030B5036A026A22F480720262C6
:105350004268C46923F4007324F073050C682C437D
:105360008D6843EA05230C4DA8420ED1CD6823F485
:10537000006343EA05234D6922F4405242EA0512D4
:105380008D6923F4806342EA05124260C461496872
:10539000C163036230BD0000002C014030B5046AD7
:1053A000026A22F4805202624268C3690D6823F4E3
:1053B000E64343EA05238D6824F4005444EA0534A7
:1053C000064DA84204D14D6922F4804242EA85127A
:1053D0004260C36149680164046230BD002C014031
:1053E00070B5056A046A24F00104046284690F4EF2
:1053F000B04208D0B0F1804F05D00D4EB04202D07F
:105400000C4EB04203D124F00304144301E044F0F5
:1054100001041A0724F0F00444EA126225F00A039A
:1054200001F00A0119438261016270BD002C014044
:10543000000400400008004030B5046A056A25F009
:1054400010050562856925F4407545EA022222F4BB
:1054500070454FF6FF7202EA033224F0A0032A439C
:10546000A02404EA011119438261016230BD0000E9
:105470000149002088707047F800002000F004F80F
:10548000642000F0B5FFF9E72DE9F041FFF7AEFB2E
:105490008046FDF7B3FA204C05464FF07C57207844
:1054A000002650B13946606802F05AFE414602F0CB
:1054B00025FE0CD8607828B105E0BDE8F041002059
:1054C00000F05EB8A560012000F05AF80BE0134927
:1054D000606802F075FB414602F010FD03D8002021
:1054E00000F04EF8A6606078002812D0A06800286E
:1054F0000FD00B49281A88420BD93946606802F050
:105500002FFE414602F0FAFD03D20120A070267062
:10551000D3E7BDE8F0810000F80000209A99993E99
:10552000A0BB0D0010B500B10120044C0028207074
:1055300003D100F025F80020A06010BDF800002085
:105540000148807870470000F800002005480449B1
:1055500041600021017081708160084600F010B840
:1055600000002042F8000020014800787047000049
:10557000F80000200148407870470000F800002043
:1055800010B5040001D0012200E0002202210548EC
:10559000FDF72EFA0CB1012000E00020024948700E
:1055A00010BD000000080140F800002004498842B6
:1055B00002DB0449884200DD084603494860704721
:1055C00000000C4200004042F800002070B50400CA
:1055D00047D01E21FAF754FF55202070AA20607092
:1055E00021480078A070FFF7F3FCE07000F010F99C
:1055F0002071FFF71DFB6071FFF7F8FA0546FFF712
:105600006BFB38B14FF07C51284602F0D9FA02F01A
:1056100029FCC0B2A071FFF75FF9E07100F094FDC2
:105620002072FFF7F7FC6072FFF7CEFA010AA17251
:10563000E072FFF7E3FC2073FFF7E6FC6073FFF70F
:10564000CDFCA073FFF7D2FCE0730D22074904F1F3
:105650001000FAF796FE204600F00AF860771E2048
:1056600070BD002070BD000004010020403E0020FD
:105670000022002808D00221435C491C1A44C9B208
:1056800092B21C29F8D9D0B27047000010B5044678
:105690001548844205D100F079FA144A1449124899
:1056A00009E01448844208D100F070FA0F4A10490A
:1056B000921C80310F4800F051FA204600F034F877
:1056C00000280FD094F8411020290BD1EFF310815E
:1056D00072B6002280F8402001B962B6BDE81040E1
:1056E00000F0DABA10BD00006802002006010020B8
:1056F000B83C0020B002002070B50B4605000ED06B
:105700006BB1EFF3108472B6AE7F36B101461E2244
:105710001846FAF736FE0020A87714B102E0002000
:1057200070BD62B6304670BD0649884201D1064858
:1057300070470649884202D1034844307047002030
:105740007047000068020020B83D0020B002002031
:105750002DE9F0411F212948FAF7B4FE27481F21FF
:105760001F30FAF78DFE25481F213E30FAF788FEDC
:1057700022481F215D30FAF783FE44212048FAF7C2
:10578000A1FE1F4844214430FAF79CFE1C480D211D
:105790008830FAF797FE1A481A4E1C4C06604430BF
:1057A000194F00250760A560FDF728F9C4E9030536
:1057B0000120207065704FF4E130706078603046F1
:1057C000FEF7BAFA3846FEF7B7FA0C4880217C306B
:1057D000FAF778FE0A4880218038FAF773FE074905
:1057E000A21C7C31304600F0B9F9221D3846BDE8D4
:1057F000F0410349803900F0B1B900003C3C002081
:10580000B83D002068020020B00200200401002002
:1058100010B5084CA068002808D0FDF7EFF8A16883
:10582000401A40F6B831884201D2012010BD002054
:1058300010BD00000401002010B504000DD0207838
:1058400055280AD16078AA2807D12046FFF710FF13
:10585000617F884201D1012010BD002010BD70B5CC
:105860000D46040018D0002D16D0A07F0126A0B14F
:10587000012817D0411CA1772254A07F1E280BD3EA
:105880002046FFF7D9FF28B121461E222846FAF705
:1058900078FDAE770020A07770BD552AFCD1A677A1
:1058A000227070BDAA2A08D0552A04D00020A07703
:1058B0005520207070BD0120F9E70220A0776270AA
:1058C00070BD70B5C57804462846FFF7FBFBA42DD4
:1058D0002FD019DCA12D64D00BDC002D75D0A02DAC
:1058E00073D1FFF7FBFB0020FFF7C6FB002102206E
:1058F00067E0A22D10D0A32D67D10020FFF712FE84
:1059000000F022FC88B112E0A53D052D5DD2DFE854
:1059100005F01A2B484F5400A07902F0DBFAFFF78C
:1059200045FE0120FFF7FEFD0120FFF7B9F8617A7F
:1059300007E0E079FEF7FAFF617AE07911E00320F1
:105940003FE004203DE0207A00F024FC207A08B1FA
:10595000012002E0FFF708FE08B9FFF7A1F8617A1D
:10596000207A0028EDD1EAE7607AFFF785FBA0797D
:10597000232803D302F0AEFAFFF718FEE079FEF712
:10598000D5FF207A00F006FCFFF7EEFD10B900F01D
:10599000DBFB10B10120FFF783F8FFF73BFB01466B
:1059A000CFE7FFF79BFB0020FFF766FB0021C6E770
:1059B000FFF7FCFA0021012003E0FFF78FFB002135
:1059C0000520BDE87040FFF783BB70BD2DE9F843AB
:1059D0001D46089C16460F465FEA00081BD0002FA4
:1059E00019D0002E17D0002D15D0802C13D82B885D
:1059F000A34210D001D200940AE04FF08000009042
:105A0000404600F055F8002332463946404600949F
:105A100000F04EF82C80BDE8F883000070B504005B
:105A200019D0A0780025012803D0022801D003282E
:105A300011D11D4E3070FCF7E1FFF0607570E07819
:105A4000B4280AD0010002D0A0390F2910D820466E
:105A5000FFF737FF25E0002070BD0220FFF720F898
:105A6000B420FFF72FFB00210420FFF731FB18E0E3
:105A7000A0F1B0010F2907D8A0780228EBD1214668
:105A80000A4800F04DF8E6E7A0F1C0010F29E2D87E
:105A9000FFF718FBE078C02803D1FFF71FFBFFF7E3
:105AA000E1FA012070BD000004010020B0020020D6
:105AB0002DE9F04115460F4680461C46069E06E03D
:105AC0002A5D39464046FFF7CAFE641CA4B2B442C0
:105AD000F6D3BDE8F08100000D4A08B5904207D129
